:020000040801F1
:1040000000A0002019950108A5770108A7770108ED
:10401000A9770108AB770108AD770108000000001F
:10402000000000000000000000000000B17701085F
:10403000AF77010800000000B3770108B5770108E9
:10404000B7770108B9770108BB770108BD77010888
:10405000BF770108C1770108C3770108C577010858
:10406000C7770108C9770108CB770108CD77010828
:10407000CF770108D1770108D3770108D5770108F8
:10408000D7770108D9770108DB770108DD770108C8
:10409000E1770108E5770108E7770108E97701088A
:1040A000EB770108ED770108EF770108F177010858
:1040B000F3770108F5770108E5780108E77801084A
:1040C000E9780108EB780108ED780108EF7801083C
:1040D000F1780108F3780108F5780108F77801080C
:1040E000F9780108FB780108FD780108FF780108DC
:1040F00001790108037901080579010807790108A8
:104100002179010823790108257901082779010817
:10411000297901082B7901082D7901082F790108E7
:1041200031790108337901083579010837790108B7
:10413000F8B514200021314CF0F788F82420012133
:10414000F0F784F823680720B3F95C11F0F77EF8E4
:1041500023680820B3F85E11F0F778F809200121F0
:10416000F0F774F80B200121F0F770F8244C0020D0
:104170006421F0F76BF801206421F0F767F82368F9
:104180000A209988F0F762F823680C2099881D4E60
:104190000131F0F75BF805200121F0F757F804F042
:1041A000E3FB20200146F0F751F84FF4FA6002F0EB
:1041B000DCFE06200121F0F749F8134D142002F02F
:1041C000D4FE124F4FF4006333602B600024F0F7ED
:1041D00031F8336800F0FF02E051D318000A2A6872
:1041E00000F0FF0004348018B4F5804F336028607D
:1041F000EDD11B1A064A1B0B1370F8BD804E002030
:10420000E88E0020C44E0020C84E0020D44E00206E
:10421000E28E00202DE9F04FBE4B0024BE4DA1B030
:104220001C70214606461420F0F710F8B5F99433B7
:104230000A21013359430220F0F708F82046EFF72E
:10424000E9FFB64B05201C702146EFF7FFFF242045
:104250000121EFF7FBFF20200146EFF7F7FFB5F94B
:10426000E413A5F850410139032001EB8101EFF778
:10427000EDFFAB4DAB4B4FF4FA7018802B68072065
:10428000B3F9F810EFF7E2FF2B680820B3F8FA1043
:10429000EFF7DCFF09202146EFF7D8FF0B2021467E
:1042A000EFF7D4FF40F28F170FE028462146013583
:1042B000EFF7ACFFADB24FF6FF70EFF7A9FFBD42CD
:1042C000F3D11434A4B2DC2C01D00025EDE7002496
:1042D00040F28F152046EF210134EFF797FFA4B28B
:1042E0004FF6FF70EFF794FFAC42F3D10020014688
:1042F000EFF78CFF002401344FF6FF70A4B2EFF704
:1043000087FFEF2CF7D12C201421EFF77FFFDB3C48
:1043100001344FF6FF70A4B2EFF77AFFC92CF7D142
:1043200058201421EFF772FF143C013C4FF6FF7048
:10433000A4B2EFF76DFF002CF7D184201421EFF722
:1043400065FFB534013C4FF6FF70A4B2EFF760FF94
:10435000002CF7D1C8201421EFF758FFB534013CE9
:104360004FF6FF70A4B2EFF753FF002CF7D1F42003
:104370001421EFF74BFF143401344FF6FF70A4B251
:10438000EFF746FFC92CF7D14FF490701421EFF7E7
:104390003DFFB53C01344FF6FF70A4B2EFF738FF94
:1043A000C92CF7D14FF4A6701421EFF72FFF143C5E
:1043B000013C4FF6FF70A4B2EFF72AFF002CF7D1B3
:1043C00021464FF4C770EFF721FFEF34013C4FF661
:1043D000FF70A4B2EFF71CFF002CF7D1524B534FE4
:1043E00000930620B9210522234600F0C9FF504D55
:1043F0003120B921052223460097DFF85C8100F0C7
:10440000BFFF5D20B92105222346009500F0B8FFCB
:104410008920B92105222346CDF8008000F0B0FFA5
:10442000444BCE200093B92140F20512234600F000
:10443000A7FFF920B92140F205122346009700F0AA
:104440009FFF40F22510B92140F205122346009546
:1044500000F096FF4FF4A970B92140F205122346EF
:10446000CDF80080A62500F08BFFDFF8F090324FEA
:1044700038E04FF0140808FB04F83B682946434431
:10448000009306200522002300F07AFF3B682946AE
:104490004344009340F205120023CE2000F070FF49
:1044A000264A20A9125D0B1903F80C2C01EB4402DB
:1044B0002349143D31F81410ADB222F8501C2149A3
:1044C000095D03F8241C2049095D03F8181C1F49E5
:1044D00031F8141022F8641C1D4A125D013403F8EF
:1044E000302CA4B2D9F80030DFF870809B88A3424A
:1044F000BFD2002504952F462C46164A118889B252
:1045000071BB0220EFF7A2FE14200121EFF79EFEFF
:1045100000F0E0BEC347002004320020684E0020B7
:10452000804E0020B6470020B4970108B9970108D3
:10453000BE970108CB970108E48E0020844E00202E
:10454000883C0020694E00208E4E00209C3C0020BC
:10455000734E0020BC470020C3970108E88E00205E
:104560000A202146EFF772FE21460C20EFF76EFE7F
:10457000142002F0FAFC06200121EFF767FE142058
:1045800002F0F3FCAB4B4FF400621A60AA4BDFF869
:10459000A4A21A609946A94B4FF0000B0393EFF7C2
:1045A00049FE039BDAF8002000F0FF014BF80300FE
:1045B0008A18000AD9F8001000F0FF000BF1040B74
:1045C0004018BBF5804FCAF80020C9F80000E5D1BB
:1045D0009B49120B31F814A0DFF890B20AFB02FAE3
:1045E000984A000B32F814901BF9043009FB00F9CB
:1045F000DFF888C20AF5007A03EB9A2A1CF9043026
:1046000009F5007903EB99298F4B1A78002A00F0FD
:10461000E38400221A700C2D00F2DE84DFE815F02E
:104620000D009B003001A901D6014C02D3023203D8
:10463000F1035304770483048F04844C4FF0280B58
:1046400094F9001000200BFB01F101F522418912C1
:10465000EFF7FCFDDFF820C201209CF90010CDF837
:1046600008C00BFB01FB0BF522418912EFF7EEFDB1
:10467000774B08200093D82140F20532002300F048
:104680007FFE744BE8200093D82140F205320023CE
:1046900000F076FE704B4FF498700093D82140F2F2
:1046A0000542002300F06CFE6C4B082000930621AD
:1046B00040F20532002300F063FE694A694B502046
:1046C0001B780621009240F2054200F059FEDDF809
:1046D00008C0A3466446E6B9634BD821009305227F
:1046E0003346B82000F04CFED8F80010334632466E
:1046F0000AE05E4C5248E2544FF4806420F81340C4
:104700000BF8032001339BB288889842F1D200F065
:10471000DFBD012E40F0DC85554BD821009340F2DF
:1047200005120023B82000F02BFE0023D8F800105B
:104730001A460BE0DFF844E142480EF803204FF43C
:10474000806E20F813E0E25401339BB288889842CF
:10475000F0D200F0BDBD474B08200093062140F287
:1047600005320023CDF808C000F00AFEDDF808C0CD
:1047700016BB5FFA8AFCACF1280111AF384649B28A
:10478000CDF808C002F022FD6FF0130363434FF62B
:10479000FE71A63303EA01012D20012305220097B3
:1047A00000F0EEFD1BF80430DDF808C02833CCEB38
:1047B000030C0BF804C024E0012E22D15FFA89FB20
:1047C00011AFABF12801384649B2CDF808C002F06C
:1047D000FDFC6FF0130363434FF6FE71A63303EA4B
:1047E0000101F520334640F20512009700F0C8FDA4
:1047F000DDF808C01CF804302833CBEB030B0CF8B1
:1048000004B0D8F8003001349B88E4B2A34201D24E
:10481000022500240D4B282719570020794301F564
:1048200022418912EFF712FD134B19574F4307F539
:1048300022413BE1C44E0020C84E0020D44E00204F
:10484000883C00209C3C0020C0470020694E00208E
:10485000D0970108E7970108F1970108FB97010835
:10486000EA990108BF4700202A980108844E0020D9
:104870003198010838980108734E00208E4E0020B0
:104880000137FFB2072F88BF002746BB5FFA8AFCBB
:1048900011ABACF12801184649B2CDF808C003931A
:1048A00002F094FC6FF013026243039BA6324FF6B2
:1048B000FE7100932D2002EA01013346052200F02B
:1048C0005FFD0FFA8AF3282BDDF808C034D01BF8FF
:1048D00004302833CCEB030C0BF804C02BE0012E82
:1048E00029D15FFA89F00DF1440BA0F12801059060
:1048F00049B25846CDF808C002F068FC6FF01303C7
:1049000063434FF6FE71A633F52003EA010140F23E
:1049100005120023CDF800B000F032FD0FFA89F344
:10492000282BDDF808C007D01CF80430059928337F
:104930005B1A0CF8043017B90134E4B20027D8F838
:1049400000309B88A34201D203250024BA4B4FF0CC
:10495000280B195700200BFB01F101F522418912A8
:10496000EFF774FCB54B19570BFB01FB0BF522411C
:1049700024E1B14B4FF0A00B195700200BFB01F1C4
:1049800001F5203101F500718912EFF75FFCAB4BA7
:104990000137195701200BFB01FB0BF5203101F505
:1049A00000718912FFB2EFF751FC16B90FFA8AF3C2
:1049B00003E0012E04D10FFA89F38C2BC8BF042524
:1049C000142F40F209830135EDB205E39A4FDFF869
:1049D0006CB22EBB11AB0AF16001184649B20393C9
:1049E00002F0F4FB6FF013026243039BA6324FF612
:1049F000FE71009302EA010101230522592000F013
:104A0000BFFC0FFA8AF39B02A3F51E336FF09F02DF
:104A1000A3F5F66393FBF2F33A5D9B183B552AE04E
:104A2000012E28D111AB09F16001184649B2039358
:104A300002F0CCFB6FF013026243039BA6324FF6E9
:104A4000FE71009302EA0101334640F2051240F282
:104A5000211000F095FC0FFA89F39B02A3F51E3399
:104A60006FF09F02A3F5F66393FBF2F31BF80420AB
:104A70009B180BF80430D8F8003001349B88E4B25E
:104A8000A34201D2052500243957A027794301F517
:104A9000203101F5007189120020EFF7D7FB1BF9D7
:104AA00004104F4307F5203101F5007101208912F0
:104AB000EFF7CCFB00278FE20137FFB2072F88BF4B
:104AC0000027DFF874B14EBB11AB0AF16001184644
:104AD00049B2039302F07AFB6FF013026243039B27
:104AE000A6324FF6FE710093592002EA01013346C7
:104AF000052200F045FC0FFA8AF3A02B3ED09B0262
:104B0000A3F51E336FF09F02A3F5F66393FBF2F358
:104B10001BF804209B180BF804302EE0012E2CD13A
:104B200011AB09F16001184649B2039302F04EFB44
:104B30006FF013026243039BA6324FF6FE7100939F
:104B400002EA0101002340F2211040F2051200F0B8
:104B500017FC0FFA89F3A02B10D09B02DFF8DCE0E2
:104B6000A3F51E336FF09F02A3F5F66393FBF2F3F8
:104B70001EF804209B180EF8043017B90134E4B273
:104B80000027D8F800309B88A34201D206250024D4
:104B90001BF904104FF0A00B0BFB01F101F52031C4
:104BA00001F5007100208912EFF750FB23480157EF
:104BB0000BFB01FB0BF5203101F50071012089127F
:104BC000EFF744FB08E201370499FFB2142F88BFC6
:104BD00007250129184BDFF864B031D893F900108C
:104BE0002824614301F5224100208912EFF72EFBB2
:104BF0009BF9001001204C4304F522418912EFF784
:104C000025FB56B90FFA8AF3312B00F36183049A1E
:104C10000125531CDBB204935AE3012E40F0588364
:104C20000FFA89F3312B00F35383049C3546631C40
:104C3000DBB204934CE300BF694E0020734E0020AA
:104C400093F900101924614301F5CC410020891229
:104C5000EFF7FCFA9BF9001001204C4304F5CC411E
:104C60008912EFF7F3FA16B90FFA8AF304E0012E6E
:104C700040F02E830FFA89F3362B00F32983013598
:104C8000EDB225E3B84B20200093D82140F2053245
:104C9000002300F075FBB54A0C2101FB0422DFF86C
:104CA00018B358209BF80030CC31009240F20542F6
:104CB00000F066FBAE4BA0200093D82140F20532F5
:104CC000002300F05DFBAB4B08200093062140F26F
:104CD0000532002300F054FBA74A9BF800309020D7
:104CE0000092062140F2054200F04AFBA34A9BF8DD
:104CF0000030B0200092062140F2054200F040FB57
:104D00009F4BD8200093062140F20532002300F08B
:104D100037FB9C4A9BF800304FF4A87000920621A4
:104D200040F2054200F02CFB974A9BF800304FF40C
:104D3000B8700092062140F2054200F021FB66BBEC
:104D40000FFA8AF3232B0ADD904A14211268193BCB
:104D500001FB0422116911A80096594302E0009654
:104D600011A831468A4A032302F008F96FF01302B2
:104D7000624311A99BF80030A63200914FF6FE71F4
:104D8000862002EA0101052200F0FAFA814B4FF475
:104D9000A4700093D8210522E1E0012E40F01C818F
:104DA0000FFA89F3232B0BDD784A14211268193B83
:104DB00001FB042211690022009211A8594302E06C
:104DC0000021009111A8724A032302F0D7F86FF076
:104DD0001302624311A99BF80030A63200914FF6EE
:104DE000FE7102EA01014FF4A77040F2051200F0D3
:104DF000C7FA694B4FF4A4700093D82140F2051212
:104E0000ADE0664B08200093062140F205320023F6
:104E100000F0B6FADFF8A0B15A4A9BF800306020E3
:104E20000092062140F2054200F0AAFA564A9BF889
:104E3000003080200092062140F2054200F0A0FAE6
:104E4000574B88200093062140F20532002300F0E2
:104E500097FA544B08200093D82140F205320023E2
:104E600000F08EFA504B70200093D82140F205429A
:104E7000002300F085FA4D4A9BF80030482000924C
:104E8000D82140F2054200F07BFA56B9484B4FF466
:104E9000A4700093D8210522334600F071FA0496DD
:104EA0009AE0012E40F09680424B4FF4A47000939C
:104EB000D82140F20512002300F062FA4FF0000EF4
:104EC000CDF810E088E0394A3B4B48201B78D821C8
:104ED000009240F2054200F053FA384B70200093E4
:104EE000D82140F20542002300F04AFA46B9344B7B
:104EF0004FF494700093D82140F2051233462FE00E
:104F0000012E69D12F4B4FF49470009342E7274A4A
:104F1000294B48201B78D821009240F2054200F02E
:104F20002FFA294B16E0214A234B48201B78D82121
:104F3000009240F2054200F023FA244B0AE01B4A9B
:104F40001D4B48201B78D821009240F2054200F00A
:104F500017FA1F4B00937020D82140F2054200231E
:104F600000F00EFA38E000BF67980108003000201A
:104F70006F980108859801089F980108A198010879
:104F8000A3980108BA980108BC980108E48E002093
:104F900014360020BE980108C5980108CC98010875
:104FA000DE980108FF9801080D990108EA990108A7
:104FB0002B98010832980108BF4700202999010861
:104FC000419901084B990108559901087799010801
:104FD0009999010800200490DFF8C8B29BF80030CE
:104FE000002B3FF48AAAD8F80030A3499B884FF4DD
:104FF0001672A3420A8023D3072D21D16EB96FF018
:105000001303634311AAA6334FF6FE71009203EA1D
:10501000010186200522334610E0012E10D16FF0E9
:105020001303634311AAA6334FF6FE71009203EAFD
:1050300001014FF4A77040F20512002300F0A0F91F
:105040009BF80030023B072B00F23D81DFE813F0B4
:1050500008003B013B01E90004013B01D400C5000D
:10506000002D08BF0125A5F10803DBB2012B4ED8A6
:10507000092D04BFC6F10106F6B24FF0000AA625BD
:10508000DFF824923CE0B6B92D20294605223346AC
:10509000CDF8009000F074F95920294605223346D6
:1050A000CDF8009000F06CF9744829460090052274
:1050B000862033461CE0012E1CD1F520294640F203
:1050C00005120023CDF8009000F05AF940F22110AB
:1050D000294640F205120023CDF8009000F050F967
:1050E00066494FF4A770009140F20512294600234B
:1050F00000F046F90AF1010A143D1FFA8AFAADB22E
:10510000D8F800309B885345BDD20025DBE0092D3F
:1051100040F2D9800A2D2CD1D8F800500023584CE9
:1051200058481FE020AEF21812F80C1C564FDFF85A
:105130006CE1F95406EB430131F8507C534E31F8E1
:10514000641C26F8137012F8246CE65412F8186CDC
:1051500012F8302C0EF803604D4EC25426F813108E
:1051600001339BB2AA889A42DCD201F0E9FD494B97
:1051700024E00B2D03D101F0E3FD474B1EE00C2D85
:1051800024D10023D8F800401A463D483D490FE09D
:105190003D4F3E4D4FF48066FA5425F813603F4F63
:1051A0003B4DC254FA5425F81360CA5401339BB2E4
:1051B000A5889D42ECD201F0C3FD394B0093082035
:1051C000D82140F20542002300F0DAF84FF47A705B
:1051D00001F0CBFE03F040FA7CE0072D04D1002C57
:1051E00071D0013CE4B26EE0082D01D9013DEDB271
:1051F000082D08BF0C2566E0072D03D90135EDB257
:105200000C2D04D8072D03D10134E4B200E00825A9
:10521000D8F800309B88A34255D20135EDB2002466
:1052200051E0072D4FD14EB90FFA8AFABAF1230F88
:1052300049DD164830F81430023B42E0012E42D1DD
:105240000FFA89F9B9F1230F3DDD114931F8143016
:10525000023B21F8143036E0072D34D136BB0FFA6B
:105260008AFABAF1230F2EDD084A32F814300233DD
:1052700022F8143027E000BFBC470020E499010861
:10528000694E0020734E0020844E0020883C002090
:105290009C3C0020BB990108EC9901088E4E00202F
:1052A0001D9A0108C3470020E6990108012E0AD182
:1052B0000FFA89F9B9F1230F05DD084830F81430E9
:1052C000023320F8143000238BF80030FFF715B9B3
:1052D000002481E621B0BDE8F08F00BF9C3C002097
:1052E0002238034B01EBC00133F81100704700BFB7
:1052F0004E9A0108024B1B1893F8D005704700BF67
:105300004E9A01082DE9F14F0E461D464FF00B084D
:1053100000F10A0106F10A0308FB05F514469BB2E9
:10532000324689B2EEF77AFF134B4FEA142903EBAA
:105330004508124D002638F806B0002704F00F0A81
:105340004BFA07F313F0010F14BF35F8190035F8C5
:105350001A000137EEF75CFF0B2FF1D10236162E43
:10536000E9D1002040F28F110246EF2301B0BDE8E1
:10537000F04FEEF753BF00BF4AA101080A310020E9
:105380002DE9F74F0F461D4601F10A03144640F27E
:105390008F113A469BB20C9EEEF740FFDFF8B090BB
:1053A0004FEA142A0B2704F00F0BDFF8A48015B97D
:1053B00039F81B0001E039F81A00013FBFB2EEF7DF
:1053C00027FF002FF1D104F00F0433E0DFF884B0A1
:1053D000002716F8013CA3F12002D2B2012A05D918
:1053E000223B07EBC3033BF8133002E0212B05D02F
:1053F00000231BB24FF00009019303E03BB2042BE2
:10540000F6D117E0019A02FA09F313F4806F01D084
:105410000DB903E015B938F8140001E038F81A00A6
:1054200009F10109EEF7F4FEB9F10B0FEAD10137EA
:10543000082FCED116F8010B0028C7D140F28F11EA
:105440000246EF2303B0BDE8F04FEEF7E7BE00BF22
:105450000A3100204E9A01082DE9F04FA0F10C030B
:105460009EB2B6F5967F85B004465AD2A0F10B0CD9
:105470004FEA83084FEA8C0C0021DFF8A4926D46B6
:1054800002AB0DF109028A460FFA88F80FFA8CFC7C
:1054900001274FF0C70E09EB510010F808B010F8C3
:1054A0000C0002F801BC587012F8010C85F800A03D
:1054B000C72802D902F801EC04E001289CBF384655
:1054C00002F8010C5878C72802D983F801E003E0FC
:1054D00001289CBF3846587012F801BC58785845CE
:1054E0000FD1012801D0C72801D12F7009E0012870
:1054F00002D9013802F8010C5878C62801D80130C9
:10550000587012F801BC5878834584BF83F801B005
:1055100002F8010C0231C9B2023502330232082905
:10552000B9D1EEF783FE0D212046EEF76FFE14F0A1
:10553000010F00F0F78176487649EEF779FEB6F56F
:10554000957F00F2AC819DF80030734A5BBBB2F9E5
:10555000103043B39DF809109DF80830C81A05288B
:105560006E4802DC06886B4D1BE00688694DA6F587
:10557000844609E005EB4300B0F8E071013346EAE8
:105580000707A0F8E071DBB28B42F3D90BE005EB23
:105590004300B0F8E071013346EA0707A0F8E07174
:1055A000DBB28B42F3D99DF802305BBBB2F96030BD
:1055B00043B39DF80B109DF80A30C81A05285748C8
:1055C00002DC4688534D1BE04688524DA6F5027614
:1055D00009E005EB4300B0F8E071013346EA070744
:1055E000A0F8E071DBB28B42F3D90BE005EB43008E
:1055F000B0F8E071013346EA0707A0F8E071DBB2CA
:105600008B42F3D99DF8043063BBB2F9B0304BB391
:105610009DF80D009DF80C30C11A05293F4902DCA8
:105620008E883C4D1CE089883A4EA1F580410839AE
:1056300009E006EB4305B5F8E071013341EA0707DD
:10564000A5F8E071DBB28342F3D90BE005EB43012F
:10565000B1F8E071013346EA0707A1F8E071DBB267
:105660008342F3D99DF806305BBBB2F9003143B3F6
:105670009DF80F109DF80E30C81A0528274802DC47
:10568000C688244D1BE0C688224DA6F5007609E0A9
:1056900005EB4300B0F8E071013346EA0707A0F8D4
:1056A000E071DBB28B42F3D90BE005EB4300B0F8BD
:1056B000E071013346EA0707A0F8E071DBB28B42E4
:1056C000F3D9B2F840324BB91449124BB1F920006A
:1056D000098803EB4003B3F8E0012EE01BB2012B75
:1056E00009D10E490B4BB1F92400498803EB400363
:1056F000B3F8E00121E0022B14D10849054BB1F9C0
:105700002800898803EB4003B3F8E00115E000BFEF
:10571000A2A10108B43C0020043200200A3100207C
:10572000B8490020032B0CD18D498E4BB1F92C00C8
:10573000C98803EB4003B3F8E00140EA0101A3F894
:10574000E011B2F8C811C1F1A10109B20B292DDD98
:105750008C4211D1844B93F8CA3113F0040F0BD152
:105760007F4B9D89814B03F5C9705E8845EA06062B
:105770005E8006338342F8D14B1E9C4202D04B1C04
:105780009C4206D1764B9889764BA3F87003A3F818
:10579000E0018C420AD1724B9989724BA3F87013C5
:1057A000A3F86E13A3F8E211A3F8E011B2F83013D6
:1057B0000B3109B28C4211D16B4B93F8323313F099
:1057C000040F0BD1664B1D89684B03F5C9705E88C9
:1057D00045EA06065E8006338342F8D14B1E9C42A2
:1057E00002D04B1C9C420DD15D4B18895D4BB3F828
:1057F000705340EA0505A3F87053B3F8E05128430D
:10580000A3F8E0018C4219D1554B1989554BB3F8D7
:10581000700341EA0000A3F87003B3F86E0341EA95
:105820000000A3F86E03B3F8E20141EA0000A3F818
:10583000E201B3F8E0010143A3F8E011B2F8442318
:105840000B3212B2944211D1474B93F8463313F006
:10585000040F0BD1424B1889444B03F5C9715D8885
:1058600040EA05055D8006338B42F8D1531E9C4209
:1058700002D0531C9C4206D1394B1989394BA3F8ED
:105880007013A3F8E01194424AD1354B1A89354B75
:10589000A3F87023A3F86E23A3F8E22140E00B2CB9
:1058A00003D040F237139C423AD12F482D4AB0F929
:1058B00090122B4B4C1E02EB4404B4F8E0511B89B0
:1058C00043EA0505A4F8E05102EB4104B4F8E051C5
:1058D000013143EA0505A4F8E05102EB4101B1F8BA
:1058E000E04143EA0404A1F8E041B0F9A412481EE3
:1058F00002EB4000B0F8E04143EA0404A0F8E041C4
:1059000002EB4100B0F8E041013143EA0404A0F8A1
:10591000E04102EB4102B2F8E0110B43A2F8E031A2
:105920001248B2E1B4F59B7F0F4D04D110480F49E6
:10593000EEF77EFC28E00A2C38D0A4F10A031E22E0
:1059400093FBF2F102FB11320AB90A4817E0062272
:1059500093FBF2F102FB113383B907480FE000BF5C
:105960000A310020B43C002004320020943E002084
:1059700034A30108C6A4010858A601087148724959
:10598000EEF756FC0C2C11D1704BB5F99022198909
:105990006F4B33F8120041EA000023F81200B5F90A
:1059A000A42233F81200014323F8121095F8923222
:1059B00013F0040F0BD1674B6449B3F99022644B89
:1059C000098933F8120040EA010123F8121095F812
:1059D000A63213F0040F0BD15E4B5C49B3F9A4223D
:1059E0005B4B098933F8120040EA010123F81210D9
:1059F000B6F5957F00F248819DF800303BBBB5F9C4
:105A0000103023B39DF809209DF80830D11A0529DC
:105A10004E4902DC08884E4917E008884C49A0F539
:105A2000844007E031F8136040EA060621F813606D
:105A30000133DBB29342F5D909E031F8136040EA53
:105A4000060621F813600133DBB29342F5D99DF8C5
:105A500002303BBBB5F9603023B39DF80B209DF8B5
:105A60000A30D11A0529394902DC4888384917E03B
:105A700048883749A0F5027007E031F8136040EA22
:105A8000060621F813600133DBB29342F5D909E031
:105A900031F8136040EA060621F813600133DBB2E7
:105AA0009342F5D99DF8043043BBB5F9B0302BB320
:105AB0009DF80D109DF80C30CA1A052A234A02DC05
:105AC0009088234A18E092882148A2F58042083A3B
:105AD00007E030F8136042EA060620F8136001334D
:105AE000DBB28B42F5D909E032F8136040EA0606D2
:105AF00022F813600133DBB28B42F5D99DF80630F2
:105B0000002B33D1B5F90031002B2FD09DF80F2099
:105B10009DF80E30D11A05290C4902DCC8880C49C1
:105B200022E0C8880A49A0F5007007E031F8136048
:105B300040EA060621F813600133DBB29342F5D93F
:105B400014E000BFA2A10108943E00200A31002009
:105B5000B43C00200432002031F8136040EA06060D
:105B600021F813600133DBB29342F5D9B5F8C821AF
:105B7000C2F1A10212B20B2A2ADD944211D1464B86
:105B800093F8CA3113F0040F0BD1444B9889444B5E
:105B900003F5C9715E8840EA06065E8006338B42D3
:105BA000F8D1531E9C4202D0531C9C4205D13B4B62
:105BB00099893B4BA3F890111980944208D1374B37
:105BC0009A89374BA3F89021A3F88E215A801A8026
:105BD000B5F830230B3212B2944211D12E4B93F808
:105BE000323313F0040F0BD12C4B18892C4B03F5D7
:105BF000C9715E8840EA06065E8006338B42F8D1A2
:105C0000531E9C4202D0531C9C4205D1234B198940
:105C1000234BA3F890111980944207D11F4B1A8986
:105C20001F4BA3F89021A3F88E215A80B5F8442386
:105C30000B3212B2944211D1174B93F8463313F042
:105C4000040F0BD1154B1889154B03F5C9715D88ED
:105C500040EA05055D8006338B42F8D1531E9C4215
:105C600002D0531C9C4205D10C4B19890C4BA3F854
:105C700090111980944207D1084B1A89084BA3F858
:105C80009021A3F88E215A800548C92105B0BDE8AE
:105C9000F04FEEF7C7BA00BF043200200A310020EF
:105CA000B43C002010B5EEF7C1FA0C480C49EEF7F1
:105CB000BFFAEEF7BBFA0B480B49EEF7B9FA0B2423
:105CC00020460134A4B2FFF7C7FBB4F59C7FF7D19F
:105CD000EEF7A6FABDE81040EEF7A8BA34A3010823
:105CE000943E0020A2A10108B43C002003282DE925
:105CF000F74F05460E4606D8464B502202FB0033AE
:105D0000B3F94C3004E0444B03EB8103B3F920308A
:105D1000C52B7CDC4FF0500909FB05F9DFF8F4A036
:105D200000240AEB090B062C2FD8032D3A4F3B4BCE
:105D30000AD803EBC5035B1B1B1993F89C8D0AEB78
:105D40000903B3F84C1005E01B1993F8B88D07EB65
:105D50008603198C0931204689B2EEF757FA0823D9
:105D600018F0010F14BF788937F816000193EEF789
:105D70004FFA019B013B9BB213B14FEA5808EFE782
:105D800037F81600EEF744FA3DE0032D1ED80AEB73
:105D90000907B7F84C1020460331611889B2EEF7B5
:105DA00035FAB7F84C70DFF870800337E719BFB2E7
:105DB00005E038F81600EEF72BFA0137BFB2BBF951
:105DC0004C3018331B1B9F42F3DB1CE0DFF848808C
:105DD000204608EB8607398C0331611889B2EEF74B
:105DE00015FA3B8C0333E31806E038F816000193EC
:105DF000EEF70EFA019B0133B7F920209BB218325F
:105E0000121B9342F1DB0134A4B20B2C8BD1BDE801
:105E1000FE8F00BF043200200A3100204E9A010894
:105E20002DE9F047EEF702FA914C0026B0B20C21B2
:105E3000EEF7ECF90C2701376089FFB2EEF7E8F9CD
:105E4000D72F8B4DF7D1013633B20B2BEED1894CC6
:105E5000B4F910301BB100200146FFF747FFB4F939
:105E600060301BB101200146FFF740FFB4F9B030AC
:105E70001BB102200146FFF739FFB4F900311BB115
:105E800003200146FFF732FFB4F9401211B9072091
:105E9000FFF72CFFB4F94012012902D10720FFF7C8
:105EA00025FFB4F94012022902D10720FFF71EFF97
:105EB000B4F94012032902D10720FFF717FF4FF46E
:105EC0009C700C21EEF7A2F90C2701376889FFB20C
:105ED000EEF79EF9D72FF8D140F23918B7B20C215E
:105EE0003846EEF793F96889EEF792F9D6213846ED
:105EF000EEF78CF901366889EEF78AF933B243453B
:105F0000ECD1B4F890120A200B3189B2EEF77EF989
:105F1000002601362889EEF77BF933B2052BF8D13C
:105F2000B4F8A4120A200B3189B2EEF76FF90026FB
:105F300001362889EEF76CF933B2052BF8D1B4F8A5
:105F400090124FF49C700B3189B2EEF75FF9002686
:105F500001362889EEF75CF933B2052BF8D1B4F895
:105F6000A4124FF49C700B3189B2EEF74FF9002662
:105F700001362889EEF74CF933B2052BF8D1B4F885
:105F8000C861C6F1A106B6B20FFA86F9B9F10B0FD6
:105F90001DDD023EB6B200270FFA86FA09F10209AA
:105FA00011E01FFA86F80C214046EEF72FF9A88978
:105FB000EEF72EF94046D621EEF728F9A889EEF73C
:105FC00027F90136013707EB0A034B45E9DDB4F841
:105FD00030A300260AF10B091FFA89F9A9F102077B
:105FE0000AF1090A0FFA89F90FFA8AFA09F1020986
:105FF00011E01FFA87F80C214046EEF707F92889CF
:10600000EEF706F94046D621EEF700F92889EEF7BB
:10601000FFF80137013606EB0A034B45E9DDB4F81A
:106020004493002409F10B081FFA88F8A8F102062E
:1060300009F109090FFA88F80FFA89F908F102083D
:1060400010E0B7B20C213846EEF7E0F82889EEF7F9
:10605000DFF83846D621EEF7D9F82889EEF7D8F8D8
:106060000136013404EB09034345EADDBDE8F0875E
:106070000A310020043200202DE9F8435920002184
:10608000EEF7C4F80024013440F21F50EEF7C0F8D8
:1060900023B20C2BF7D15A200021EEF7B7F80024D9
:1060A000013440F21F50EEF7B3F823B20C2BF7D1B6
:1060B0004FF49A700021EEF7A9F80024013440F261
:1060C0001F50EEF7A5F823B20C2BF7D140F2351094
:1060D0000021EEF79BF80024013440F21F50EEF748
:1060E00097F823B20C2BF7D15B263F4F20E02846D0
:1060F0000021EEF78BF837F804904FF0000849FACA
:1061000008F010F0010018BF40F21F5008F101081C
:10611000EEF77EF8B8F10C0FF1D102340135102CF6
:10612000ADB2E4D1083632B240F233139A4203D012
:10613000B6B235460024DAE72C4DC820B5F9C8318F
:106140000021584340F6D46390FBF3F05B3080B2FB
:10615000EEF75CF80924013C4FF6FF70A4B2EEF7AD
:1061600057F8002CF7D1B5F9C831C820584340F68C
:10617000D46390FBF3F06A30214680B2EEF746F824
:106180000934013C4FF6FF70A4B2EEF741F8002C41
:10619000F7D1C82740F6D466B5F9C8010021784385
:1061A00090FBF6F05B30201880B2EEF72FF84FF638
:1061B000FF70EEF72DF8B5F9C8010921784390FB7F
:1061C000F6F05B30201880B2EEF720F801344FF67D
:1061D000FF70EEF71DF823B2102BDDD1034B002228
:1061E00083F8DE21BDE8F8830EA801080432002000
:1061F00013B503460C4601A8194600F0CDFF9DF8E3
:106200000430002023719DF8053063719DF806303D
:10621000A3711CBD4FF6FF73984252D01F3B00EA9A
:1062200003034FF6E07293424DD043055B0D40F2FD
:10623000FF72934249D04FF61F0300EA03034FF663
:106240001F02934243D000F4FC63B3F5FC6F40D0CF
:106250004BF6E05300EA03034BF6E05293423AD088
:1062600040F2F75300EA030340F2F752934234D06E
:106270004BF6170300EA03034BF6170293422ED0A6
:1062800000F4BC63B3F5BC6F2BD047F6EF3300EAE4
:10629000030347F6EF32934225D040F21F5300EA42
:1062A000030340F21F5293421FD000F47843B3F52A
:1062B000784F1CD000F01F001F2814BF0D200C20A9
:1062C0007047002070470120704703207047052069
:1062D000704707207047022070470420704706204F
:1062E000704708207047092070470A2070470B202C
:1062F000704770B586B004460C221349684603F017
:1063000017F920466946FFF773FF1048694603AA4C
:1063100005ABEDF7BBFF044698B90D4E05460B489B
:1063200003A9EDF7B5FF58B9701908494FF49672F3
:1063300005F5967503F0FCF8B5F5966FEFD100E022
:106340000824204606B070BDD4A90108744000207E
:1063500074420020F0B589B004460C22284901A8F7
:1063600003F0E6F80023204601A98DF81030FFF76E
:106370003FFF244801A905AA07ABEDF785FF214E91
:106380000446002836D1304621464FF4007203F00F
:106390000FF91D4D1D4F1BE010F803E004338B4235
:1063A00002F801EFF8D1B5F84C3005A9154886F888
:1063B0002B31EDF76FFF0146F0B9FE2004F0030327
:1063C00040F20A520134FEF79DFF5035042C05D0EF
:1063D0000F4A0023E01940F2AC41DDE709484FF4D1
:1063E000006105AA07ABEDF757FF002814BF09208D
:1063F000002002E00A2000E0092009B0F0BD00BF43
:10640000D4A901087440002004320020B8490020BB
:10641000734000202DE9F04F87B004460C22444918
:10642000684603F085F820466946FFF7E1FE4148DB
:10643000694603AA05ABEDF727FF3E4E0446002848
:106440006FD13D493046362203F072F83B4833465F
:106450002146025B023402F478452D1283F836504F
:1064600002F4FC65ED10D20083F8375083F8382031
:1064700083F839100433202CEBD1203C7627A0463A
:1064800040F2FF1939E021462846EDF7BFFEEDF74F
:10649000EBFE8246681C214680B2EDF7B7FEEDF7B1
:1064A000E3FE83465046FFF7B5FE82465846FFF7A7
:1064B000B1FE00EB0A10F0550137BFB24F4513D9BA
:1064C0001C4803A9EDF7E6FE074660BB4FEA5803F8
:1064D000FE2008F10108394640F20A5203F0030396
:1064E0001FFA88F8FEF70EFF0235ADB2B5F5C87F8A
:1064F000C9D10134A4B2F02C01D00025C3E727B1E3
:106500000C4803A9EDF7C6FE68B90A484FF43C41B0
:1065100003AA05ABEDF7C0FE002814BF0920002038
:1065200002E00A2000E0092007B0BDE8F08F00BFBC
:10653000E0A90108744000203E31002074310020A1
:106540002DE9F04186B00C2204463D49684602F030
:10655000EFFF0DF10C0869462046FFF749FE394868
:106560006946424605ABEDF78FFE002862D1364FF3
:106570000546344C39464FF40072204602F0D8FFED
:1065800020464146EDF786FE0646002854D16B08AA
:106590000135FE20314640F20A5203F00303EDB20A
:1065A000FEF7B0FE202D07F50077E2D131464FF41B
:1065B0000072204602F0FCFF244B04F1200022462A
:1065C00019461D8A15809D8C55801D8F9580B3F8C6
:1065D0004C505033D58008328242F2D1B1F8A0310C
:1065E0001B4A2384B1F8B4516584B1F93830194D90
:1065F000D25CA5F12800A284174A32F81320E28465
:10660000B1F98830154A03A9D25C2285144A32F8C0
:1066100013206A80EDF73EFE70B9A5F128004FF413
:10662000844103AA05ABEDF737FE002814BF09200B
:10663000002002E00A2000E0092006B0BDE8F08159
:10664000ECA9010874400020D44E00200432002040
:10665000844E00209C400020883C00208E4E00206C
:106660009C3C00202DE9F04788B060490C2206468A
:1066700001A802F05DFF5E4900235E4C4AF65522F8
:106680008DF8103001F5DA6001F5D663A1F8B02677
:106690000A330A3022462546178A23F8087CB2F8C6
:1066A00024C023F806CC178F23F8047CB2F84CC022
:1066B000503223F802CC08338342EDD1B5F8A02143
:1066C000B5F8B431A1F8D226A1F8D4364A484B4BDC
:1066D0004B49DFF834E14B4F00221EF802C023F88B
:1066E00008CC30F802CF23F806CC17F802C00132EC
:1066F00023F804CC31F802CF23F802CC0833082A5F
:10670000EBD1304601A905AEFFF772FD384801A96B
:10671000324607ABEDF7BAFD8046002861D1DFF8BD
:10672000F8A08146324F31463846EDF7B1FD0028DA
:1067300055D10AEB090039464FF4007209F500798A
:1067400002F0F6FEB9F5804FECD138463146EDF750
:106750009FFD002843D107F120003B4602211A8803
:106760002282B3F802C0A4F824C09A882287B3F822
:1067700006C002220833A4F84CC0A17484F8262075
:1067800084F83A1084F84E1050348342E7D1398CA3
:10679000A5F8A0117B8C85F8A221A5F8B43185F865
:1067A000B621B98CB5F93830174AD154B7F826C09C
:1067B000164A22F813C0398DB5F98830114AD154E0
:1067C0001349144A498822F8131095F852310121CF
:1067D00043F00203A5F8501185F8523101E04FF063
:1067E0000808404608B0BDE8F08700BFECA90108E2
:1067F0007440002004320020863C002052470020D4
:106800009A3C00208E4E0020844E0020883C0020C0
:106810009C4000209C3C0020D44E002028494AF691
:106820005523B1F8B026F0B59A4248D1254B01F571
:10683000D66201F5DA660A320A361846022532F8BF
:10684000084C1C8232F8067C9F8432F8044C1C876A
:1068500032F8027C02240832A3F84C709D7483F84D
:10686000264083F83A5083F84E505033B242E6D176
:10687000B1F8D236B1F8D476A0F8A03180F8A241B0
:1068800080F8B641A0F8B4710F4B104C1048114E6F
:10689000114D002233F8087C975533F8067C24F814
:1068A000027F33F8047C575533F8027C01320833F9
:1068B000082A20F8027FEDD10023A1F8B036F0BD00
:1068C000744000200432002052470020863C002003
:1068D0009A3C0020844E00208E4E00200F4B30B595
:1068E000502404FB0033B3F938000D4B463C04FB45
:1068F00000342025002305E021280CBFCD54C854C6
:106900000133DBB214F8010B0028F5D12C24CC5450
:10691000C91801334870137030BD00BF0432002025
:10692000E64700202DE9F04F8BB00C220446A04929
:1069300001A8A04D02F0FCFD01A92046FFF758FC7C
:10694000284601A904AA06ABEDF79EFC06460028DE
:1069500040F0278198490722284602F0E9FD304699
:10696000E91D0DF12702FFF7B9FF9DF82770934944
:10697000FC1D2819072202F0DBFD07F10E010120A2
:1069800069180DF12702FFF7A9FF9DF827808C49B0
:1069900008F10708A04405EB08000F2202F0C8FD2B
:1069A000DFF82CA208F10F08344640F2FF19854A9F
:1069B000BAF938308449B25831F8131002F0FF00A8
:1069C0004143824801F50071C35603EB912108B29F
:1069D00000287F4B03DDC82802DDC72100E000212D
:1069E0008DF82010B3F988007A4902F47F4731F816
:1069F00010107943784F090A385601F5007100EB01
:106A0000912108B2002803DDC82802DDC72100E07B
:106A100000218DF8211012F4803F0EBFB3F8EC1066
:106A200093F8EC1014318DF8221012F4003F0EBFD1
:106A3000B3F83C3193F83C3114338DF82330002700
:106A400008ABD95D07A800F0A7FB002320E00AAA45
:106A5000D31813F80C3C0BB305F8083008F1010803
:106A6000C84512D9534804A9EDF714FC8046002804
:106A700040F099806308FE200134414640F20A52FA
:106A800003F00303E4B2FEF73DFC9DF82730013329
:106A90008DF827309DF82730022BD8D92C2305F804
:106AA000083008F10108C84511D9424804A9EDF79A
:106AB000F1FB8046002876D16308FE200134414670
:106AC00040F20A5203F00303E4B2FEF71BFC013765
:106AD000042FB5D108F101070D23B7F5007FA346B8
:106AE00005F8083012D1334804A9EDF7D3FB074667
:106AF000002858D14FEA5B030134FE20394640F2AA
:106B00000A5203F00303E4B2FEF7FCFB07F10108AD
:106B10000A23B8F5007FEB5512D1264804A9EDF7FA
:106B2000B9FB074600283ED16308FE20394640F2F3
:106B30000A5203F00303FEF7E5FB0134E4B2B84662
:106B40000436B6F5804F7FF432AFB8F1000F1DD098
:106B50000D2305F8083008F1010808F10102033B94
:106B6000A8180021C2F5007205F8083002F020FDD7
:106B700004A91048EDF78EFB0146A0B96308FE207A
:106B800040F20A5203F00303FEF7BCFB094861021E
:106B900004AA06ABEDF780FB002814BF09200020F3
:106BA00002E00A2000E009200BB0BDE8F08F00BF32
:106BB00019AA010874400020F8A9010800AA0108D8
:106BC00008AA0108D44E0020883C0020844E0020F2
:106BD000043200209C3C00208E4E00202DE9F04322
:106BE00087B0EDF72BFB0146684600F072FB572398
:106BF0008DF80830073B8DF80930444C04338DF88C
:106C00000A30543B8DF80B302046694603AA05AB89
:106C1000EDF73CFB0546002873D1204603A9EDF7AC
:106C200037FB002868D1218801F0FF03062B65D1CE
:106C30002A462B46A05C01321B18B2F5007FDBB25E
:106C4000F8D1002B5CD1324A090A11702F4A314920
:106C5000104630F8024F5E185C540233240A0E2BA3
:106C60007470F6D12C4B294903F582600C8A1C8282
:106C70004E8A9E848C8A1C87CE8A0831A3F84C6089
:106C800050338342F2D12149244E0023B1F8784099
:106C900098190C3344710231240A6C2B0471F5D11C
:106CA0001F49204C2048DFF88C90DFF88C80DFF8FB
:106CB0008CC01E4F6C3BB2F88A6003F80960360A3C
:106CC00003F80860B2F88C6024F8026BB2F88E60AA
:106CD00020F8026FB2F89060083203F80C60360AB0
:106CE000DE5501330A2BE6D1B1F85020104B1A8043
:106CF000B1F85210998004E0082502E0052500E073
:106D00000625284607B0BDE8F08300BF7440002088
:106D1000C8470020D84700200432002098310020C6
:106D2000FE400020883C00209A3C0020734E00204A
:106D30002A310020844E00208E4E0020694E002013
:106D40002DE9F04389B0EDF779FA014601A800F08A
:106D5000C0FA57238DF80C30073B8DF80D30043303
:106D60008DF80E306E4801A904AA06ABEDF78EFA35
:106D70006B4C18B1042840F0CE802DE04223BDF8C2
:106D800010008DF80C30013B8DF80D300A33ADF852
:106D90001C008DF80E30204601A904AA06ABEDF7C1
:106DA00073FA002840F0B580204607A9EDF770FA85
:106DB000002840F0AC80204604A9EDF76BFA0028CB
:106DC00040F0A98020464FF4007104AA06ABEDF70D
:106DD00063FA002840F09F8057238DF80C30504D07
:106DE000073B8DF80D3004338DF80E30284601A98D
:106DF00004AA06ABEDF748FA0646002840F0898061
:106E00004FF400722846314602F0D2FB454B2A4629
:106E10001B781B0206332B80434BF1184978F05C3A
:106E20000902023609180E2E22F8021FF5D13F4B37
:106E30003B4A03F58261B3F81080A2F81080988C69
:106E40005082B3F83880A2F81480B3F84C00503365
:106E5000D08208328B42EED1314A354800231918CE
:106E60000F794E793F02B9190C33A2F8781002322B
:106E70006C2BF4D12F4A30483049DFF8D0C0DFF80E
:106E8000D0E02F4F2F4E6C3B13F90C8013F90E906E
:106E90004FEA0828C844A5F88A8030F8028BA5F884
:106EA0008C8031F8028FA5F88E8013F9078013F9D2
:106EB00006904FEA0828C8440133A5F890800835A9
:106EC0000A2BE1D1204B40F2FF111888A2F85000A4
:106ED0009B88A2F8523000231A46E05C01338B42B3
:106EE0000F4D0244F9D15242284604A985F8FF21EA
:106EF000EDF7D0F978B928464FF4007104AA06AB33
:106F0000EDF7CAF9002814BF0920002004E008208A
:106F100002E00A2000E0092009B0BDE8F08300BFCC
:106F200074400020C8470020D847002004320020C9
:106F300098310020FE400020883C00209A3C002030
:106F4000734E0020694E00202A3100208E4E002012
:106F5000844E0020034609B905E058430139C9B2FF
:106F60000029FAD1704701207047034B18801A8816
:106F700092B2002AFBD17047B44700202DE9F047B8
:106F8000B1F1004F0C4615461E469DF820A013D1C6
:106F90000346202203F8012B2E214170591C334651
:106FA00000E04270013BDBB20130002BF9D1013E21
:106FB000F6B28B55BDE8F087BAF1000F0ED100296B
:106FC00000F1010301D1302201E003DD2B22027028
:106FD000184603E02D2202704C4218462146052235
:106FE00000230A2705E00133B342C8BF7A4391FB6F
:106FF000F7F10929F7DCB342A8BFA41822464FF0E5
:1070000000080A2102E092FBF1F29846092A08F1F1
:107010000103F8DC032E4FF003090BD998FBF9F8B4
:1070200093FBF9F909EB4909B3EB090908BF4FF0E4
:10703000030905E093FBF9F808EB4809C9EB0309DC
:10704000871931460A20FFF785FF0A2301E094FBE8
:10705000F3F48442FBD2002304E015F8012B002A4C
:10706000FBD101334345F8DB3B462A7803F8012F77
:1070700015F8012B002AF8D114E094FBF3F203FB7E
:107080001244013E3034BAF1020F07F80149F6B25A
:10709000144609D0B8F1000F06DDB14504D107F858
:1070A000011901E00A232E21002EE6D1BAF1020FC8
:1070B00006D0B8F1000F08D12E233B70BDE8F08751
:1070C000B8F1000F01D120233B70BDE8F08730B547
:1070D00087B0054611220C4601A8164902F028FA8D
:1070E000A5F16103DBB2192B01D8203DEDB2A4F16B
:1070F0006103DBB2192B01D8203CE4B200231A460D
:10710000184601A9895CA94204BF1818C0B201320F
:107110001033102ADBB2F4D1002301A9C95CDAB222
:10712000A14204BF1018C0B20133102BF5D107B033
:1071300030BD00BF25AA010842F2107230B5B1FB84
:10714000F2F4034604F1300503F8015B02FB141569
:107150004FF47A72ADB2B5FBF2F101F13004447034
:1071600002FB1150642280B2B0FBF2F502FB150065
:1071700005F13001597080B20A21B0FBF1F202F141
:10718000300501FB12025C1C3032023365705A700C
:1071900002340023637030BD642230B5B1FBF2F5D8
:1071A000034605F1300403F8014B02FB15140A21D4
:1071B000E4B2B4FBF1F202F1300501FB12423032CD
:1071C0004570581C5A700023437030BD002930B5FB
:1071D00000F1010202DB2B23037003E02D2349425F
:1071E000037049B2642491FBF4F004FB10111346C0
:1071F00000F1300549B22E205A3C03F8015B507073
:1072000091FBF4F004FB101100F130053031002245
:107210005D709970DA7030BD6423B1FBF3F202FB4C
:10722000131370B5DBB20A26B3FBF6F506FB153374
:107230000446303305F1300204F8012B437000237B
:10724000637070BD9F294FEA111200F1010301D94B
:10725000373200E0303201F00F010929027003F1EA
:10726000010201D9373100E0303119700023137069
:107270007047B1F5204F4FEA113200F1010301D3FD
:10728000373200E030320905090DB1F5206F027088
:107290004FEA112003F1010201D3373000E0303012
:1072A000C9B29F2918704FEA111002F1010301D9E8
:1072B000373000E0303001F00F010929107003F180
:1072C000010201D9373100E0303119700023137009
:1072D0007047B1F1204F4FEA117200F1010301D361
:1072E000373200E0303221F07041B1F1206F02708E
:1072F0004FEA116003F1010201D3373000E0303072
:1073000021F07F41B1F5200F18704FEA115002F1C2
:10731000010301D3373000E0303021F07F4121F408
:107320007001B1F5202F10704FEA114003F10102F6
:1073300001D3373000E0303009041870080CB0F584
:10734000204F4FEA117102F1010301D3373100E000
:10735000303100051170020DB2F5206F4FEA107048
:1073600003F1010101D3373000E0303002F0FF02B9
:107370009F2A18704FEA121001F1010301D937302A
:1073800000E0303002F00F02092A087003F1010119
:1073900001D9373200E030321A7000230B70704789
:1073A00010B5044650B18008FFF7FAFF4300581C9F
:1073B00000FB00F2A24288BF184610BD10BD38B5D0
:1073C0000420ECF747FF3049C2430C8892B222EA0E
:1073D0000404A3B2002B34D02C481925057013F0F7
:1073E000080018BF092003F04005002D18BF0A202F
:1073F00003F48075002D18BF032003F40075002DE1
:1074000018BF042003F48065002D18BF052003F485
:107410000065002D18BF062003F48055002D18BF0D
:10742000072003F40055002D18BF022003F4804309
:10743000002B18BF012024B230EA240028BF082006
:107440000AE00888104007D01048007818B9104B9F
:107450001C780CB902E018460A8038BD12F480602E
:1074600018BF052002F40064002C18BF062002F0AB
:107470000804002C18BF092014B230EA240028BFE9
:10748000082005241C70E7E7C6470020C1470020FC
:10749000C2470020034BC058884234BF002001205F
:1074A000704700BF083800080A4B30B5C558043390
:1074B000C45800231846012111FA03F22A4201D0D0
:1074C0000130C0B2224201D00130C0B20133202BC2
:1074D000F2D130BD08380008014BC058704700BFDA
:1074E00004380008064B0246202019688A4205D05D
:1074F000203080B22033B0F5006FF6D1704700BF66
:107500002038000830B50D4B202010E0043254F82C
:10751000045B92B2202A01EA0501F7D1B1F1FF3FE5
:107520000AD0203080B22033B0F5006F04D01C4662
:107530004FF0FF310022E9E730BD00BF20380008DE
:1075400070B50D460446ECF797FE05F10060A1B258
:1075500000F56050ECF78EFE06460648210C281810
:10756000ECF788FE0446ECF789FE04EA0600C0B298
:1075700070BD00BF023800082DE9F041884607467B
:10758000ECF77AFE0A4E002404254644E3195978A4
:10759000E35D301943EA0121ECF76CFE0234102C54
:1075A00005EA0005F2D1ECF769FE2846BDE8F08156
:1075B00010380008F8B507460E46ECF75DFEE7B157
:1075C000202F04D900231C46203F012210E0002375
:1075D0001D46012212FA03F101330D43D9B2B9421B
:1075E000F8D300240BE012FA03F101330C43DBB2B1
:1075F000BB42F8DB4FF0FF3501E03C463D460F480B
:10760000A9B23018ECF736FE07460D48290C3018A1
:10761000ECF730FE00EA07050A48A1B23018ECF793
:1076200029FEEDB205400848210C3018ECF722FE87
:107630000446ECF723FE05EA0400F8BD083800080C
:107640000A3800080C3800080E38000870B50446E7
:107650000D46ECF711FE0948A1B22818ECF70AFE16
:1076600006460748210C2818ECF704FE0446ECF700
:1076700005FE04EA0600C0B270BD00BF0438000871
:10768000063800082DE9F04F89B004AC302281465D
:107690008A4620460021ADF81C20FFF71AFE484616
:1076A00051464FF6FF7200230094ECF7CDFD002603
:1076B000DFF8ECB03546344604A82946FFF709FE4A
:1076C000364A13789E4225D009EBC4039BB2167844
:1076D0000393C846002704ABDB5D8DF81C30FBB27A
:1076E0009C4207D107AB0093039851464FF6FF72B7
:1076F000334606E007AA0092404651464FF6FF7215
:1077000000230137ECF7A0FD08F10808082F1FFA45
:1077100088F8E0D19BF80030002B38D09BF800307F
:10772000023B072B30D8DFE803F02A2F2F04102F5D
:107730002226C4F107039B0035FA03F212F00F0F63
:1077400001D001220FE00F2209E0C4F107039B00E2
:1077500035FA03F202F00F020F2A04D0012212FAC6
:1077600003F3ED1810E012FA03F3ED1A0CE0072C06
:1077700007D0013401E034B1013CE4B204E0082454
:1077800002E0002400E00724054A00231370072CC0
:1077900092D9284609B0BDE8F08F00BFBF4700204E
:1077A000C34700207047FEE7FEE7FEE7FEE77047AD
:1077B0007047704770477047704770477047704711
:1077C0007047704770477047704770477047704701
:1077D000704770477047704770477047ECF710BDAF
:1077E000ECF710BD7047704770477047704770479F
:1077F0007047704738B513200021ECF727FD374B51
:107800001A781C461AB11A78013A1A7038BD142336
:107810002370636813B16368013B636022892F4B57
:1078200092B2142A03D91A8992B2143A00E00022C3
:107830001A816289294B92B2132A04D95A8992B2C9
:10784000143A5A8103E003200021ECF7FFFC237B6C
:10785000224D312B03D82B7B01332B7310E00023F7
:10786000042001212B73ECF7F1FCEB899BB201336F
:10787000EB812B8A9BB21BB12B8A9BB2013B2B82E3
:10788000A27C164B0132A274A27C0B2A09D90022D9
:107890009A74DA7CD2F1010238BF0022DA74012234
:1078A0001A75627D0D4B12B15A7D013A5A75A27D4F
:1078B0000A4B12B19A7D013A9A75FFF780FD58B1D3
:1078C000074BE075B3F9E4130320013901EB8101A3
:1078D000ECF7BCFC3C23638138BD00BFAC47002003
:1078E00004320020704770477047704770477047F8
:1078F00070477047704770477047704770477047D0
:1079000070477047704707B5044B642000933221DD
:107910004FF6FF720023ECF797FC0EBD36AA010864
:10792000704770477047704770477047704770479F
:107930007047704770477047F7B54FF0006039499E
:1079400001F016FFFCF7F4FB00F086FE364D374ED3
:107950002C462B78002B5CD02B78012B13D10020E8
:10796000334F014603464FF4FC620097ECF76CFC82
:107970004FF47A70FFF7F9FA0020014602460346F9
:107980000097ECF761FC2378022B13D10020294FDC
:10799000014603464FF4FC620097ECF755FC4FF4A8
:1079A0007A70FFF7E2FA002001460246034600978C
:1079B000ECF74AFC2378032B13D100201E4F01461D
:1079C00003464FF4FC620097ECF73EFC4FF47A70EC
:1079D000FFF7CBFA00200146024603460097ECF77A
:1079E00033FC2378042B12D10020014603464FF4C8
:1079F000FC620096ECF728FC4FF47A70FFF7B5FABA
:107A000000200146024603460096ECF71DFC0023C9
:107A1000237032200146ECF7F9FB4FF4FC60ECF7E1
:107A2000F7FB96E700400108C347002053AA01086E
:107A30004FAA010851AA010839AA0108F7B5204C3C
:107A4000204D04F16C070026237813F0020F13D0A9
:107A500014F8073C54F80BEC35F8132014F8063CE6
:107A6000267003EB8303734434F8050C14F8011CEF
:107A700000930023FDF784FC0C34BC42E4D1124B8C
:107A80001A780D3AD2B2082A18D8104B1978A9B131
:107A90000C2555430E4E0021197074192779E08882
:107AA000A17A647975590B4B064A04EB84041B7860
:107AB0002C1932F817200094FDF762FCFEBD00BFC0
:107AC000A331002056AA0108C8470020C047002063
:107AD00098310020BF4700202DE9F341A64B054611
:107AE0001B78A64CDFF8DC8243B9B4F92032D8F811
:107AF0000020142101FB0323DE8908E0B4F92032C1
:107B0000D8F80020142101FB0323B3F87260B4F904
:107B100020724FF00303082F0AD8C7F10B01B1FB05
:107B2000F3F10A20C9B2FFF715FA4FF0010C09E092
:107B3000A7F10901B1FBF3F10A20C9B2FFF70AFA74
:107B4000844601200323B7FBF3F303EB4303D8F888
:107B50000020FF1A4FF00C0E142303FB07270EFB27
:107B600005425279D7F8C4300B2A00F2F282DFE8DE
:107B700012F00C0013001C0050008500DB002B01EC
:107B80006501C601EE012A02A6020620ECF762FB9F
:107B90004FF47A7141434CE179480223C189794A13
:107BA0000093013001F07F01D1E20EFB0542117913
:107BB000724B71B9B3F97C20012A40F03A81B3F8D5
:107BC000A420714B10B21978704B1B78CB1A7049F6
:107BD00010E0012940F02C81B3F9CC20012A40F0BB
:107BE0002781B3F8F4206B4B10B219786A4B1B78DD
:107BF000CB1A6A4931F8101012B24B4313F50071D9
:107C000044BF03F5BE610F3189120429D8BF00219A
:107C100006E10EFB05421179584B81B9B3F97C207E
:107C2000012A40F00681B3F9A4205D49B3F9B830C8
:107C30008956CB1A564931F812005A4912E00129E7
:107C400040F0F680B3F9CC20012A40F0F180B3F97E
:107C5000F4205549B3F908318956CB1A4F4931F808
:107C6000120052490968090B414301F5007103EB09
:107C700091218B1C042B98BF0021D1E00EFB054203
:107C800011793E4B09BBB3F97C20012A1ED1B3F90F
:107C9000A430434AD6563E4A32F81370444B186813
:107CA000000BFFF77DFB434AB4F9A430126814219E
:107CB000474301FB032307F5007706EB9726196975
:107CC000022ED8BF0026714300E000210C2202FBE7
:107CD00005421279294B012A20D1B3F9CC20012A7F
:107CE0001CD1B3F9F430304AD6562C4A32F813700E
:107CF000314B1868000BFFF753FB2E4AB4F9F430F0
:107D000012681421474301FB032307F5007706EBB4
:107D100097261969022ED8BF0026714301230093CC
:107D20002648274A023312E20EFB05421179134B13
:107D300079B9B3F97C20012A7BD1B3F9A420184981
:107D4000B3F9B83089561048CB1A114931F81210DE
:107D500060E001296CD1B3F9CC20012A68D1B3F9D4
:107D6000F4201149B3F9083189560A48CB1A0B4956
:107D700031F812104EE000BF684E0020983100200C
:107D8000C847002020360020C04E0020C24E0020F0
:107D9000883C0020C14E0020C34E00209C3C0020A7
:107DA000844E0020C44E00208E4E0020C84E00207D
:107DB000CC4E0020E48E0020D04E0020C947002089
:107DC00014360020804E00200EFB05421179954BA1
:107DD00079B9B3F97C20012A2BD1B3F9A4209249B7
:107DE000B3F9B83089569148CB1A914931F812103D
:107DF00010E001291CD1B3F9CC20012A18D1B3F924
:107E0000F4208C49B3F9083189568B48CB1A8B4939
:107E100031F812100078414301F5007103EB912114
:107E2000874B14201B6800FB02321369594300E0A2
:107E30000021002300938348834A87E10EFB05411C
:107E40000F79784A4FB9B2F97C20012A30D17F4AA4
:107E50007F4F128857437F4A22E0012F09D1B2F9A0
:107E6000CC20012A23D17C4A794F128857437B4A80
:107E700016E0022F09D1B2F91C21012A17D1784A44
:107E8000734F12885743774A0AE0032F0FD1B2F994
:107E90006C21012A0BD1744A6D4F12885743734AE3
:107EA00012884FF4FA6197FBF2F74F4300E0002786
:107EB000BCF1090F4FF03C0110D8B3FBF1F1B7FB57
:107EC000F1F7FA2179430123B1FBF0F100930E336E
:107ED000B1FBF3F15B48664A0B3B38E1B3FBF1F3CE
:107EE000B7FBF3F70CFB07FCF022BCFBF2FC06FB34
:107EF0000CF6012300935348310A5D4A26E10EFB3C
:107F000005410979474A31B9B2F97C20012A40F08C
:107F10003181504ADDE0012906D1B2F9CC20012A95
:107F200040F0FF804D4ADFE0022906D1B2F91C2162
:107F3000012A40F0F6804B4AE1E0032940F0F1804D
:107F4000B2F96C21012A40F0EC80484AE2E00EFBD5
:107F500005421179334B49B9B3F97C30012B2DD14E
:107F6000444B45491B8859433A4B22E0012909D12A
:107F7000B3F9CC30012B20D1404B3F491B885943EA
:107F8000364B16E0022909D1B3F91C31012B14D16B
:107F90003B4B39491B885943324B0AE003290CD12A
:107FA000B3F96C31012B08D1364B33491B88594347
:107FB0002E4B1B8891FBF3F100E00021012300937D
:107FC0002048314AC2E00EFB0542127915498AB9B0
:107FD000B1F97C10012969D11C4A264917881D4A2C
:107FE000098812885A434B43B2FBF7F2B3FBF7F709
:107FF000D21B5BE0012A09D1B1F9CC30012B54D15D
:108000001E4B1D4A1B885A43144B4AE0022A3DD19D
:10801000B1F91C31012B48D1194B174A1B885A431F
:10802000104B3EE098310020844E0020C24E0020CC
:10803000883C00208E4E0020C34E00209C3C002037
:10804000E48E0020C947002014360020B44E0020E2
:1080500020A10700D68E0020B64E0020DA8E002028
:10806000B84E0020DE8E0020BA4E0020E08E0020A8
:108070002C360020AC4E0020A0860100AE4E002021
:10808000B04E0020B24E002044360020032A0CD10E
:10809000B1F96C31012B08D1374B384A1B885A4350
:1080A000374B1B8892FBF3F200E000226FF0004395
:1080B000B3FBF0F39A4243D800FB02F13AE00EFB27
:1080C000054109792F4A41B9B2F97C20012A51D1E1
:1080D0002D4A128853432D4A1FE0012908D1B2F9D5
:1080E000CC20012A1DD12A4A12885343294A14E080
:1080F000022908D1B2F91C21012A12D1264A12887C
:108100005343264A09E003290BD1B2F96C21012A15
:1081100007D1194A12885343214A1288B3FBF2F35C
:1081200000E000236FF00042B2FBF0F2934207D868
:1081300000FB03F1B1FBF6F18902B1FBFCF101E0B8
:108140004FF0004101231748174A00930333FEF70D
:1081500015FF0C2303FB0544144B2279208903EB04
:1081600042035A890F4BA17A00930023FDF708F9C7
:10817000BDE8FC810B46D5E7B24E0020A086010089
:10818000E08E002098310020AC4E0020B44E00203C
:10819000AE4E0020B64E0020B04E0020B84E00205B
:1081A000BA4E0020C94700203836002056AA0108E0
:1081B0002DE9F04FAF4E85B04FF00008DFF8DCB28C
:1081C000BDE1237813F0020200F0188123F00203CE
:1081D000042D237014F8082C01D0072D16D112F0AD
:1081E00020030AD0B6F9102054F80E3C34F8060CDF
:1081F00014F8041C33F8122012E012F0800F40F043
:108200008F8134F8060C14F8041C21E112F0200AC6
:1082100009D054F80E3C34F8060C14F8041C1A88E3
:1082200054F8123CD0E012F0020300F0A480082DB4
:108230002FD1914F5021B7F9FC22B7F910331420F8
:10824000D31AB7F92423DFF83CC201FB02728B4931
:10825000B2F9A420096800FB0212116907F58E62C9
:10826000604659430C320323CDF80CC0CDF800A072
:10827000FEF784FEB7F9242354F80E3CDDF80CC059
:1082800034F8060C14F8041C33F81220CDF800C0A2
:108290005AE00A2D5AD1DFF8E0A14FF00303BAF9F2
:1082A0002072082F0ADCC7F10B0191FBF3F128467D
:1082B000C9B2FEF74FFE0346012008E0A7F109010D
:1082C00091FBF3F12846C9B2FEF744FE0123BAF947
:1082D000B013BAF99C234FF0030E8A1A684997FB32
:1082E000FEFE0EEB4E0E0968CEEB07074FF0140EA4
:1082F0000EFB0717D7F8C4104A43002A6FF000415D
:1083000004DD91FBF3F18A420ADC04E0574291FB61
:10831000F3F18F4204DD02FB03F191FBF0F101E088
:108320004FF00041574F584A384603234FF0000A98
:10833000CDF800A0FEF722FE54F80E3C34F8060CEF
:1083400014F8041C1A8800975346E7E0092D40F002
:10835000E780494FD7F8500397F86013FEF71CFFEA
:10836000D7F85433B7F85C031A88D7F8503397F826
:108370005E130093E8E7012A29D120238BF801300E
:108380000B2D34F8022C04D112B2092A0BD11E3B5A
:1083900003E012B20A2A06D102230093394864216D
:1083A0003A4A013306E001320A210223514335489B
:1083B000364A0093FEF7E2FD54F80E3C34F8060C02
:1083C0001A8814F8041C2F4B00930023A6E0802A7F
:1083D00009D0082D34F8060C14F8041C6AD054F89F
:1083E0000E2C12886DE00A2D40F09A8054F80E2C65
:1083F00034F8060C14F8041C128825E09BF80030B1
:10840000AB4240F08D80224911F808304B4540F0D6
:108410008780204B1978002900F082801A70042D83
:1084200014F8083C01D0072D15D113F0200F34F8B3
:10843000060C14F8041C184B09D0B6F9107054F847
:108440000E2C1B7832F8172054F8127C65E01B784C
:10845000B6F9107031E013F0200F21D00E4B54F814
:108460000E2C1B7834F8060C14F8041C128854F8EF
:10847000127C3BE00432002098310020E48E002082
:10848000804E0020C94700203836002044360020A6
:10849000D8470020C0470020BF470020C847002021
:1084A000022B26D0082D34F8060C14F8041C2A4B95
:1084B00010D11B78294AB2F9247354F80E2C32F8E3
:1084C000172034F902EC54F8127C4FF00A0C0CFB24
:1084D0000E7722E034F902EC54F8127C4FF00A0CCB
:1084E00054F80E2C0CFB0E771B7812880097FCF7C3
:1084F00047FF092D14D114F8083C13F0020F0FD0D8
:10850000706996F82410FEF747FE134BB2691B788A
:10851000308C96F82210128877690097FCF730FFAC
:1085200009F101091FFA89F91434B9F1040F7FF434
:1085300048AE08F101085036B8F10D0F09D0084BCC
:10854000502404FB08341FFA88F512344FF0000958
:1085500037E605B0BDE8F08FBF4700209831002016
:10856000043200202DE9F8430024DFF880801B4FFF
:108570001B4E0AE033680A20142100FB047001FB43
:10858000043101F05DF80134A4B2D8F80050AB8892
:10859000A342EFDA134E0024A6F89C30A6F8EC3084
:1085A0000023A6F83C31A6F88C31DFF844904FF058
:1085B0000A080D4F09E03B68142108FB049001FBF9
:1085C000043101F03DF80134A4B2EB885A1DA242F7
:1085D000F1DAA6F81832BDE8F88300BFE6470020BC
:1085E000E48E002098310020804E0020E88E00208C
:1085F0007C48002037B50620EBF72CFE40F6B83358
:1086000080B298421FD940F6AC5398421DD940F62B
:108610003C7398421BD9C83398428CBF0423032370
:108620000C4C0A25B4F8CC0194F8CE11D4F8C4212E
:10863000D4F8C04132F8132005FB03430093002314
:10864000FCF79EFE3EBD0023EAE70123E8E7022394
:10865000E6E700BF9831002070B524200121EBF738
:10866000F5FD00211420EBF7F1FD0020EBF7D2FD22
:108670001420FEF77AFC06200121EBF7E7FD5025D8
:108680000023184C0BE0967C013846F0020680B2BD
:10869000967414320028F6D101330D2B04D005FB5B
:1086A000034204200F49EEE70F4B03F16C02D87A26
:1086B00040F00200D8720C339342F8D10B4B1B7878
:1086C000092B06D0002381F8E23281F8F63281F8D6
:1086D0001E33074B4FF416721A80064B01221A7094
:1086E00070BD00BF0432002098310020C847002030
:1086F000BC470020093A00202DE9F04700264FF042
:108700001109154DB0463446A027CA46A00805F801
:10871000017CFCF7EFFDB4FBF7F307FB13439BB2BF
:1087200028701BB9C8F101081FFA88F809FB08F383
:108730003C3314F03F0F04BFC6F10106B6B26B70B4
:108740000AFB06F304341433A4B2AB700435B4F559
:10875000966FDBD1BDE8F087B949002070B5294D8F
:10876000002485F8B04424200121EBF76FFD214659
:10877000254C0520EBF76AFD0920B4F92410EBF72E
:1087800065FD0A20B4F93810EBF760FDB4F9383014
:10879000B4F94C20EB1893F9B13403F580635343DB
:1087A00013F5007144BF03F5BE610F31891200203B
:1087B000EBF74CFD0B20B4F97410EBF747FD0C20E0
:1087C000B4F98810EBF742FDB4F98830B4F99C2075
:1087D000ED1895F9BB3403F58063534313F500712D
:1087E00044BF03F5BE610F3189120120EBF72EFD66
:1087F000B4F950312BB906200121BDE87040EBF7E8
:1088000025BD70BDB84900200432002070B5194E56
:1088100024200121EBF71AFD96F8B034164C13B959
:10882000B4F8B45103E0B4F8B4510535ADB2142333
:108830005D43D6F8C83407205B19B3F90810EBF78D
:1088400005FDD6F8C83408205D196989EBF7FEFCF0
:108850000A4BB4F9B42133F81220094B1A60B4F969
:1088600050312BB906200121BDE87040EBF7EEBC7A
:1088700070BD00BFB8490020043200208CAA010856
:10888000B047002070B5354CB4F9F03183B90F20F2
:108890002421EBF7DBFC324A324B0C211A60B4F98D
:1088A00004320D2001FB0323B3F85210EBF7CEFC8A
:1088B000B4F9F031022B12D1284B294DB3F904320F
:1088C0000C2202FB03530D20B3F85210EBF7BEFC51
:1088D000244BCC351D600F202421EBF7B7FCB4F9F5
:1088E000F031012B13D11D4B1D4DB3F904320C2275
:1088F00002FB03530D20B3F85210EBF7A7FC194B02
:1089000005F58A751D600F202421EBF79FFCB4F953
:10891000F031124E032B20D1114CB6F904320E2542
:1089200005FB03431020B3F86411EBF78FFCB6F995
:108930000432112005FB0343B3F86611EBF786FC04
:10894000B6F90432122005FB0344B4F86611013174
:108950004908BDE87040EBF779BC70BD04320020D7
:10896000143A00205004024010B52B4CB4F93033B7
:10897000B4F944138B4202DD2220591A01E022206F
:10898000C91AEBF763FCB4F95432B4F94012202051
:1089900003EBC101EBF75AFCB4F94032B3B91F4AFB
:1089A0001D4BB2F90010B3F938301D4A2120D218FE
:1089B00092F9CC24891A1B4A890202EB4303B3F8CB
:1089C000743291FBF3F1C9B2EBF740FCB4F94032D9
:1089D000012B16D1114A104BB2F90410B3F98830AB
:1089E0000F4A2120D21892F9D624891A0D4A8902F9
:1089F00002EB4303B3F8883291FBF3F1C9B2EBF712
:108A000025FCB4F950312BB906200121BDE81040F6
:108A1000EBF71CBC10BD00BF043200202A3100203F
:108A2000B8490020143A0020F0B59E00C728494CF0
:108A300001DDC72502E0012803DC012504F82350ED
:108A400001E004F82300C72902DDA519C72703E0C8
:108A5000012903DCA51901276F7001E0A5196970D0
:108A60003D4D12F0010F14BFB4F8E0C4B5F8ECC0EE
:108A7000A71987F802C0B5F90071023F072F53D834
:108A8000DFE807F0041C3334373C444B94F8B0342F
:108A9000304A1BB9B2F9E234C0180DE0B5F9103014
:108AA0001BB1B2F9E434C01800E01846B5F96030E3
:108AB000002B40D0B4F9E60408183CE094F8B03438
:108AC000244A1BB9B2F9E234C0180CE0B5F91030F1
:108AD0001BB1B2F9E434C01800E01846B5F96030B3
:108AE0004BB3B4F9E804401A25E0D24312F0030F67
:108AF0001CE01A4AD05CB4F9EC3405E0174AD318EC
:108B000093F82C01B4F9EE34C01814E0134AD318CA
:108B100093F85802B4F9F034F6E7104AD31893F8F2
:108B20008403B4F9F234EFE712F0020F14BFB4F982
:108B3000EA04B5F93C01C72802DDA419C72303E004
:108B4000012803DCA4190123E370F0BDA419E0702F
:108B5000F0BD00BFB849002004320020744200205C
:108B60002DE9F04FC04EC14C0020B6F83C51A4F89E
:108B7000F404A4F8F604A4F8F804A4F8FA04A4F899
:108B8000FC04A4F8FE04A4F80005A4F80205B6F855
:108B90004C00ABB2B6F89CC01A1A1FFA8CF192B214
:108BA000571AA4F8E4245A1AA4F8E624B04AC918BB
:108BB000A4F8E81492F82B1100B2591AA4F8EC1496
:108BC00092F85712A4F8E274591AA4F8EE1492F825
:108BD000831392F8AF24591A9A1AA4F8F224B6F91A
:108BE0003820A4F8F014A11891F9CC14B6F98870C3
:108BF000401AA049800201EB4202B2F874220FFA37
:108C00008CFC90FBF2F0E21992F9D62401EB4707B5
:108C1000B7F88872C2EB0C02920292FBF7F2A4F84A
:108C20000405A4F8062584F8080584F8092584F8C5
:108C30000B254FF40062C4F80C25C4F81025C4F8C5
:108C40001425C4F81825B6F8EC2084F80A0510B2EB
:108C5000B32891B003DDC721A4F8E01402E0143278
:108C6000A4F8E0242DB2B32D03DDC722A4F8EA2432
:108C700002E01433A4F8EA3494F8B0147B4A1423C5
:108C8000002940F0D681D2F8C824B6F9B4114FF0CB
:108C9000020903FB0123DB896FF095025A4302F5B9
:108CA000163303F50073002BB8BF734B734DB8BF79
:108CB000D318B6F8C821002702EBA322704B0C9200
:108CC00005930A970B97B846099708970797CA46DE
:108CD000CB46CDF8089006970397B6F9B431102B20
:108CE00008DD6148B0F9503123B9EBF7A3FA0599D3
:108CF000486011E00120EBF7ADFA68B9B5F83C31F6
:108D00009F4209D1B6F9503133B97B1CA5F83C31EB
:108D1000EBF790FA059A5060059BD4F8140553F8C8
:108D2000041FB4F906C50593D4F80C35CAB2D3189C
:108D3000C4F80C35B4F90435D31A03FB0303D4F893
:108D40001005C4F814350B0ADBB21818C4F8100566
:108D5000D4F81805CCEB030C0CFB0C00C4F8180578
:108D600094F8080590423CBF404880F8082594F8E4
:108D70000A05904284BF3D4880F80A2594F8090509
:108D800098423CBF394880F8093594F80B05984261
:108D900084BF364880F80B35090CC9B20491B9B2CA
:108DA000A1F1020C1FFA8CFC40F6FB70844500F226
:108DB000C1800298022806D14FF0000CA5F83E11A0
:108DC000A4F8F4C4079195F84001904209D20298A2
:108DD000C8B9B4F8FC04A5F83E110130A4F8FC04AD
:108DE00011E095F8410190420FD9029801280CD169
:108DF000B4F8F4C4B5F83E01C0EB0C000818A4F8B0
:108E0000F404002000E001200290BBF1020F06D123
:108E10004FF0000CA5F84211A4F8F6C4089195F89B
:108E2000440198420CD2BBF1000F2BD1B4F8FE04E0
:108E3000A5F842110130A4F8FE040BF1010B23E068
:108E400095F8450198421FD9BBF1010F1CD1B4F828
:108E5000F6C4B5F842010BF1FF3BC0EB0C0008185B
:108E6000A4F8F60410E000BF04320020B849002046
:108E700074420020143A0020FF5D0200988D00200B
:108E8000D04E00204FF0010BBAF1020F05D10020A7
:108E9000A5F84611A4F8F8040991DDF810C01CF0FB
:108EA00001000CD0BAF1000F17D1B4F80005A5F8F5
:108EB00046110130A4F800050AF1010A0FE0BAF1E9
:108EC000010F0CD1B4F8F8A4B5F846C1CCEB0A0CEC
:108ED0008C44A4F8F8C4824601E04FF0010AB9F1CD
:108EE000020F05D10020A5F84811A4F8FA0488461D
:108EF000DDF810C01CF002000CD0B9F1000F17D142
:108F0000A5F84811B4F8021509F101090131A4F8D6
:108F100002150FE0B9F1010F0CD1B4F8FA94B5F8CD
:108F200048C1CCEB090C8C44A4F8FAC4814601E09A
:108F30004FF00109DDF830C038B20FFA8CF18842E9
:108F400071DBDFF880C3B6F938100CEB4100B0F8E4
:108F500074026118424391F9CC0402F5007200EBEF
:108F6000922292B20D92B6F988200D980CEB420134
:108F7000B1F888C2A21803FB0CFC0A9992F9D63406
:108F80000CF5007C02B203EB9C2C0B980BB2D31AAD
:108F90001FFA8CFC0E930FFA8CF203B2D31A0F93C4
:108FA00031E0069A0E98C1F5806193B201324843D0
:108FB000069248BF00F57E700A9A48BF073002EB60
:108FC000A0200F9A00B251430B9A44BF01F57E7165
:108FD000073102EBA12109B2049ACDF804C0FFF7D2
:108FE00023FDB6F9B421D4F8C834142101FB0233AF
:108FF0000398DB890699C01A0BB2B3F5967F0390EC
:10900000DDF804C004DA039A11B20029C9DC02E0D9
:109010004FF400530C9303980D9900F58060039072
:10902000CDF82CC00A910137B7F5805F7FF455AEBB
:1090300056E1D2F8C824B6F9B411B6F8C8A103FBBA
:109040000123B3F872306FF095025A4302F51633DC
:1090500003F50073002BB8BF984B4FF00008B8BF62
:10906000D318DFF868B20AEBA32A47464546C14643
:10907000B6F950311BB9EBF7DDF8CBF804005BF81B
:10908000041FB6F860200B0CDBB203930292CBB244
:10909000090A7AB91A46CBB2B4F90415D4F8140502
:1090A000C1EB020C0CFB0CFC0CEBDC7C00EB6C0051
:1090B000591A0EE0B4F906C5CAB2CCEB0201CCEBEA
:1090C000030C0CFB0CFCD4F814050CEBDC7C00EB63
:1090D0006C00494301EBD17100EB6100D4F80C1531
:1090E000C4F81405981801EB6001C4F80C1594F845
:1090F000081591423CBF724880F8082594F808157D
:1091000099423CBF6E4981F8083594F80A1591429E
:1091100084BF6B4880F80A2594F80A150FFA89F085
:10912000994284BF664981F80A350FFA8AF188426C
:10913000C0F29780029850B9B6F93810601890F9CB
:10914000CCC4604800EB4101B1F8741209E0B6F9F3
:109150008810601890F9D6C45A4800EB4101B1F864
:1091600088124A434B4302F500720CEBA22203F52E
:1091700000730CEBA32C02920FFA88F3049302986D
:10918000049903B25B1A1FFA8CFC059324E005993D
:10919000C3F580634B43049A44BF03F57E730733E2
:1091A00002EBA32000B2BBB20146039ACDF804C083
:1091B000FFF73AFCB6F9B421D4F8C834142000FB08
:1091C0000233B3F872300137ED1A40F22B123BB282
:1091D0009342DDF804C003DC2BB2002BD7DC01E0A6
:1091E0004FF4005A0FFA89F20FFA8AF39A4205F502
:1091F000806525DA35E0029AC3F58063534344BFA6
:1092000003F57E73073308EBA32000B2BBB201461F
:10921000039ACDF804C0FFF707FCB6F9B421D4F8DF
:10922000C834142000FB0233B3F872300137ED1A52
:1092300040F22B123BB29342DDF804C008DD0BE094
:10924000029B0FFA83F80FFA8CF3C8EB0303029327
:109250002BB2002BCFDC01E04FF4005A05F58065FE
:10926000E04609F101090FFA89F3B3F5805F7FF455
:10927000FFAED4F80C35C4F81035D4F81435C4F862
:10928000183594F8083584F8093594F80A3584F8C7
:109290000B35B6F9103033B90B4BB3F94C20084BF2
:1092A0001203C3F80C25B6F960308BB9064A98460C
:1092B000B2F99C201203C4F810250BE0FF5D0200F8
:1092C000B8490020143A002004320020D04E00207B
:1092D0004FF00008CDF82480CDF82080CDF81C8018
:1092E00094F8083594F80A2594F80B15D218521002
:1092F000234B0432D2B283F84021083A83F841214B
:1093000094F80925DDF81CC08A1852100432D2B234
:1093100083F84421083A83F84521B3F83E210898A0
:10932000CCEB0202A3F83E21B3F842210999121AAC
:10933000A3F84221B3F84621521AA3F84621B3F804
:109340004821C8EB0208A3F848812379237094F8D8
:10935000A83484F8AC346379637094F8A93484F841
:10936000AD34A379A37094F8AA3484F8AE34E379C9
:10937000E37094F8AB3484F8AF3411B0BDE8F08FEB
:10938000988D002070B54E4DB5F9A031042B59D8F9
:10939000DFE803F0032044525200B5F95432B5F926
:1093A0004012202003EBC101EAF750FF0220EAF748
:1093B00051FF444CE0B92268002A43D1424B40F6A9
:1093C000FE71B3F83C01884288BFA3F83C21FFF747
:1093D000C7FB1CE0B5F95432B5F94012202003EB6D
:1093E000C101EAF733FF0220EAF734FF354C28B118
:1093F000FFF7B6FB324BB3F9B4210AE023680BBB8D
:1094000032491A46CA540133B3F5966FFAD1B5F909
:10941000B4212F4B33F81230236013E0B5F940121A
:10942000B5F95432202003EBC101EAF70FFF022007
:10943000EAF710FF30B103E020200146EAF706FF0B
:10944000FFF78EFBFCF72EFCB5F950511C4C002D9C
:1094500035D10320EAF7FEFE002830D00620012196
:10946000EAF7F4FE1A4BB4F9B42133F81220154B85
:109470001A60154BA3F83C51B4F9A031022B09D165
:109480000123A4F8503194F8523143F0020384F8D8
:10949000523170BD042B12D10E4BB4F84C60B4F8AD
:1094A0009C50B4F8EC00B4F83C1103F5966203F854
:1094B000016C1D705870997004339342F7D170BDE0
:1094C00004320020B0470020988D0020B8490020C9
:1094D0008CAA0108B94900200A4A0B4B9A4201D0D4
:1094E0000A4907E00A4B0B49002208E052F8040B36
:1094F00043F8040B8B42F9D3F4E743F8042B8B4277
:10950000FBD37047C2AA010800300020B23C002003
:10951000B43C0020F08E0020684620F007018D4604
:1095200001B5FFF7D9FFFEF707FAFEE7FEE7704740
:109530000F2AF0B403460C4630D941EA000515F075
:10954000030F2CD115462668103D1E6066685E60CC
:10955000A6689E60E6681034DE6010330F2DF2D8E6
:10956000103A22F00F0402F00F021034032A00EB2D
:109570000403214411D90E461D46144656F8047BB7
:10958000043C032C45F8047BF8D8043A22F0030489
:1095900004341B19091902F003020C4632B12146AA
:1095A00011F8014B013A03F8014BF9D1F0BC7047B7
:1095B00010F0030F70B404460DD0002A3ED0013ADB
:1095C000034602E0002A39D0013A03F8011B13F0E8
:1095D000030F1C46F6D1032A2BD901F0FF050F2AF1
:1095E00045EA0525264645EA054584BF2346164635
:1095F00010D9103E1D605D609D60DD6010330F2E40
:10960000F7D8103A22F00F0602F00F021036032AA4
:1096100026440DD934461346043B032B44F8045B1F
:10962000FAD8043A22F003030433F61802F00302D6
:1096300034461AB1013A04F8011BFBD170BC7047E3
:1096400080EA0102844612F0030F4FD111F0030F9C
:1096500032D14DF8044D11F0040F51F8043B0BD0FA
:10966000A3F101329A4312F0803F04BF4CF8043B4F
:1096700051F8043B16D100BF51F8044BA3F101325D
:109680009A4312F0803FA4F101320BD14CF8043B15
:10969000A24312F0803F04BF51F8043B4CF8044B46
:1096A000EAD023460CF8013B13F0FF0F4FEA3323B7
:1096B000F8D15DF8044B704711F0010F06D011F896
:1096C000012B0CF8012B002A08BF704711F0020F84
:1096D000BFD031F8022B12F0FF0F16BF2CF8022B6F
:1096E0008CF8002012F47F4FB3D1704711F8012B92
:1096F0000CF8012B002AF9D1704700BF40F0BE6082
:10970000024B40F42020D860704700BF00ED00E01D
:10971000C37810B5E3B1144B4178DB688478DB4340
:1097200003F4E0631B0AC3F1040291400F22DA4004
:1097300022400A430D4B01781201CB1883F8002315
:1097400003780122590903F01F0312FA03F307E01B
:1097500003780122590903F01F0312FA03F32031A1
:10976000024A42F8213010BD00ED00E000E100E0C7
:1097700021F0604121F07F01014B01439960704766
:1097800000ED00E0044B11B11A69104302E01A69C0
:1097900022EA00001861704700ED00E0044B042845
:1097A0001A680CBF42F0040222F004021A607047EB
:1097B00010E000E043485F41005A45524F004449E1
:1097C000464600564F4C544147450043485F4200CF
:1097D0002020202020202020504C4541534520436C
:1097E0004F4E4E45435400494E50555420544F203F
:1097F00000474E44202020202020002020205052CE
:109800004553532020204B455920544F20434F4E61
:109810004649524D2054484520494E5055542056F3
:109820004F4C54414745202020002043485F4120B1
:10983000002043485F4220002020204155544F4DD6
:10984000415449432043414C4942524154494F4EAF
:1098500020494E2050524F47524553532E2E2E2012
:109860002020202020200020494E50555420002048
:109870005354414E4441524420564F4C5441474565
:1098800020544F20004D4F4449465920564F4C54C8
:109890004147453A2020202E2E2E20202020002D2A
:1098A000002B0053454C4543542052414E47453A06
:1098B0002020202D2D2D202020003C003E0043485C
:1098C0005F4120200043485F4220200020202020CC
:1098D00050524553532020202D2D2D202000205460
:1098E0004F2053454C45435420544845204E45583D
:1098F00054204F5045524154494F4E2020200020C3
:10990000205052455353202020544F2000434F4EA7
:109910004649524D205448452052452D43414C491B
:1099200042524154494F4E200053454C4543542028
:109930005448452043414C4942524154494F4E20DE
:109940000043485F4220202020200043485F412000
:1099500020202020004578697420574954484F55ED
:1099600054205341564520524553554C54532020C2
:10997000202020202020004578697420414E44207A
:10998000534156452043414C4942524154494F4E60
:1099900020524553554C5453004578697420414E2C
:1099A0004420524553544F52452053595354454D2A
:1099B0002044454641554C5453200020202020206F
:1099C0002020202020202020202020202020202097
:1099D0002020202020202020202020202020202087
:1099E0002020202020202020202020002020202097
:1099F000202020202020534156494E4720544845DE
:109A00002043414C4942524154494F4E2044415415
:109A10004120202020202020202020200020202045
:109A200020202020524553544F5245204445464162
:109A3000554C54532043414C4942524154494F4E96
:109A400020444154412020202020202020000000DC
:109A50000000000080074000200020002000FC01E2
:109A6000FC01FC01FC01FC01FC01FC010000700098
:109A7000F800FC01FC01FC01F800700000000C0380
:109A80008C01C0006000300018030C0300000000CF
:109A9000800160021C026A0284024001000002028E
:109AA00002020202020202020202FE0300000000A1
:109AB0000000F800FC0106030202000000000000A4
:109AC000000002020603FC01F80000000000000094
:109AD0008C01D80070007000D8008C0100000000DC
